:060000000A128A110C280F
:10000800FE00030EF0000A08F1000A128A11682C9B
:100018000A128A110F28FA01FB0183132030840089
:100028003F300A128A15E9240A128A1183010A123A
:100038008A111E280A128A15BF250A128A110A1265
:100048008A153F270A128A110A128A1516250A12DA
:100058008A11F601F60A01300A128A1598260A1240
:100068008A1101300A128A156C250A128A110A129D
:100078008A159C270A128A11790883120313AD0086
:100088007808AC000A128A11DB250A128A1179084D
:1000980083120313AB007808AA000A128A11A52656
:1000A8000A128A11790883120313A9007808A80094
:1000B8000A128A110A270A128A117908831203136D
:1000C800A7007808A6000A128A1140260A128A1187
:1000D800790883120313A5007808A4000A128A116C
:1000E8006F270A128A11790883120313A30078086C
:1000F800A2000A128A15F1240A128A115130F2005C
:100108000030F3000A128A150C250A128A110030F1
:10011800F200F3000A128A1591250A128A11720850
:1001280083120313BE000A128A15FA240A128A11CE
:10013800A53083120313CD00CD0BA028A32864306B
:10014800F2000030F300831203133E08CD00CE0105
:100158004D08F4004E08F5000A128A110A250A1201
:100168008A11720883120313BD000A30C3000030DD
:10017800C4000A30F2000030F3003E08CD00CE0182
:100188004D08F4004E08F5000A128A110A250A12D1
:100198008A11730883120313C6007208C5000A1275
:1001A8008A15E4260A128A11831203134308BC0035
:1001B8000A30C3000030C4003E08CD00CE014D080F
:1001C800C5004E08C6000A128A15E4260A128A11CA
:1001D800831203134308BB00F601F60A02300A1221
:1001E8008A1598260A128A11831203133D08303E95
:1001F8000A128A15ED250A128A11831203133C0884
:10020800303E0A128A15ED250A128A118312031349
:100218003B08303E0A128A15ED250A128A110A3067
:1002280083120313C3000030C4002908C60028083D
:10023800C5000A128A15E4260A128A1183120313CA
:100248004308B6000A30C3000030C4000A30F20088
:100258000030F3002908F5002808F4000A128A1172
:100268000A250A128A11730883120313C60072083A
:10027800C5000A128A15E4260A128A11831203138A
:100288004308B5000730F60001300A128A1598268F
:100298000A128A11831203133508303E0A128A158E
:1002A800ED250A128A11831203133608303E0A120A
:1002B8008A15ED250A128A113A300A128A15ED2597
:1002C8000A128A110A3083120313C3000030C400D3
:1002D8002B08C6002A08C5000A128A15E4260A1245
:1002E8008A11831203134308B8000A30C300003090
:1002F800C4000A30F2000030F3002B08F5002A0889
:10030800F4000A128A110A250A128A117308831244
:100318000313C6007208C5000A128A15E4260A12D9
:100328008A11831203134308B7003708303E0A12B4
:100338008A15ED250A128A11831203133808303EF4
:100348000A128A15ED250A128A113A300A128A15FC
:10035800ED250A128A110A3083120313C3000030F4
:10036800C4002D08C6002C08C5000A128A15E42608
:100378000A128A11831203134308BA000A30C30011
:100388000030C4000A30F2000030F3002D08F500F8
:100398002C08F4000A128A110A250A128A11730815
:1003A80083120313C6007208C5000A128A15E426D0
:1003B8000A128A11831203134308B9003908303E20
:1003C8000A128A15ED250A128A11831203133A08B4
:1003D800303E0A128A15ED250A128A110A30831254
:1003E8000313C3000030C4002708C6002608C50050
:1003F8000A128A15E4260A128A1183120313430883
:10040800B4000A30C3000030C4000A30F2000030E3
:10041800F3002708F5002608F4000A128A110A25B5
:100428000A128A11730883120313C6007208C500E2
:100438000A128A15E4260A128A1183120313430842
:10044800B3000730F60002300A128A1598260A12FD
:100458008A11831203133308303E0A128A15ED25D8
:100468000A128A11831203133408303E0A128A15BD
:10047800ED250A128A112F300A128A15ED250A1263
:100488008A110A3083120313C3000030C400250800
:10049800C6002408C5000A128A15E4260A128A1121
:1004A800831203134308B2000A30C3000030C400AB
:1004B8000A30F2000030F3002508F5002408F400A3
:1004C8000A128A110A250A128A1173088312031361
:1004D800C6007208C5000A128A15E4260A128A1193
:1004E800831203134308B1003108303E0A128A15FB
:1004F800ED250A128A11831203133208303E0A12BC
:100508008A15ED250A128A112F300A128A15ED254F
:100518000A128A110A3083120313C3000030C40080
:100528002308C6002208C5000A128A15E4260A1202
:100538008A11831203134308B0000A30C300003045
:10054800C4000A30F2000030F3002308F500220846
:10055800F4000A128A110A250A128A1173088312F2
:100568000313C6007208C5000A128A15E4260A1287
:100578008A11831203134308AF0005300A128A1543
:100588006C250A128A11831203132F08303E0A12AF
:100598008A15ED250A128A11831203133008303E9A
:1005A8000A128A15ED250A128A115C2C0A128A157C
:1005B8005A260A128A110A128A15F1240A128A1175
:1005C8005130F2000030F3000A128A150C250A1285
:1005D8008A110030F200F3000A128A1591250A12D6
:1005E8008A11720883120313BE000A128A15FA24AC
:1005F8000A128A11A53083120313CD00CD0B022BEA
:10060800052B6430F2000030F300831203133E0818
:10061800CD00CE014D08F4004E08F5000A128A11EB
:100628000A250A128A11720883120313BD000A30C0
:10063800C3000030C4000A30F2000030F3003E0866
:10064800CD00CE014D08F4004E08F5000A128A11BB
:100658000A250A128A11730883120313C600720846
:10066800C5000A128A15E4260A128A118312031396
:100678004308BC000A30C3000030C4003E08CD0067
:10068800CE014D08C5004E08C6000A128A15E42698
:100698000A128A11831203134308BB00F601F60AF3
:1006A80002300A128A1598260A128A118312031335
:1006B8003D08303E0A128A15ED250A128A11831266
:1006C80003133C08303E0A128A15ED250A128A11D6
:1006D800831203133B08303E0A128A15ED250A12CD
:1006E8008A110A3083120313C3000030C40027089C
:1006F800C6002608C5000A128A15E4260A128A11BD
:10070800831203134308B4000A30C3000030C40046
:100718000A30F2000030F3002708F5002608F4003C
:100728000A128A110A250A128A11730883120313FE
:10073800C6007208C5000A128A15E4260A128A1130
:10074800831203134308B3000730F60002300A127D
:100758008A1598260A128A11831203133308303E29
:100768000A128A15ED250A128A1183120313340816
:10077800303E0A128A15ED250A128A112F300A1204
:100788008A15ED250A128A110A3083120313C30051
:100798000030C4002508C6002408C5000A128A15BE
:1007A800E4260A128A11831203134308B2000A309E
:1007B800C3000030C4000A30F2000030F3002508FE
:1007C800F5002408F4000A128A110A250A128A116F
:1007D800730883120313C6007208C5000A128A152B
:1007E800E4260A128A11831203134308B100310860
:1007F800303E0A128A15ED250A128A118312031354
:100808003208303E0A128A15ED250A128A112F3055
:100818000A128A15ED250A128A110A308312031367
:10082800C3000030C4002308C6002208C5000A120D
:100838008A15E4260A128A11831203134308B000AA
:100848000A30C3000030C4000A30F2000030F30060
:100858002308F5002208F4000A128A110A250A1250
:100868008A11730883120313C6007208C5000A129E
:100878008A15E4260A128A11831203134308AF006B
:1008880005300A128A156C250A128A11831203137D
:100898002F08303E0A128A15ED250A128A11831292
:1008A80003133008303E0A128A15ED250A128A1100
:1008B80083120313200321040319632C642CDA2AFE
:1008C8003B280A128A110C280B1C6B2C6C2C032D4C
:1008D800831203130618712C722C842C0130A00784
:1008E8000318A10A0030A1070514023020062104CC
:1008F800031D7F2C802C022DA001A1010510022DC3
:100908008618872C882C9F2C20032104031D8D2CEE
:100918008E2C9F2C0130FA070318FB0A0030FB07C6
:1009280003307A067B04031D9A2C9B2C022DFA01B6
:10093800FB01022D022D0619A22CA32CD12C200379
:100948002104031DA82CA92CD12C7A087B04031D93
:10095800AE2CAF2CB62C0130A6070318A70A00301E
:10096800A707022D7A037B04031DBB2CBC2CC32CC8
:100978000130A4070318A50A0030A507022D02308C
:100988007A067B04031DC92CCA2C9E2C0130A207B1
:100998000318A30A0030A307022D8619D42CD52CDE
:1009A800022D20032104031DDA2CDB2C022D7A08EA
:1009B8007B04031DE02CE12CE82CFF30A60703186C
:1009C800A70AFF30A707022D7A037B04031DED2C2D
:1009D800EE2CF52CFF30A4070318A50AFF30A50755
:1009E800022D02307A067B04031DFB2CFC2C9E2C66
:1009F800FF30A2070318A30AFF30A3070B107108E2
:100A08008A00700E8300FE0E7E0E09008312031307
:100A1800C001F31F102D112D182DF209F309F20A48
:100A28000319F30AC001C00AF51F1B2D1C2D252D23
:100A3800F409F509F40A0319F50A0130F6007608F5
:100A4800C006C101C2017208730403192C2D2D2D93
:100A5800642DBF01BF0A3B2D01300310F20DF30DC9
:100A6800FF3E031D312D0130F6007608BF07F31F46
:100A78003E2D3F2D302D01300310C10DC20DFF3E1C
:100A8800031D402D73087502031D4C2D7208740256
:100A9800031C4F2D502D572D7208F4027308031CA8
:100AA800F503F502411401300310F30CF20CFF3E7C
:100AB800031D582D0130BF02031D632D642D3F2DEA
:100AC80040080319682D692D6E2DC109C209C10A94
:100AD8000319C20A4208F3004108F2000800003076
:100AE80083120313C3000030C2000030C10000307D
:100AF800C00075087404730472040319842D852DCD
:100B0800D22DC401C40A952D0130BF000310F20D87
:100B1800F30DF40DF50DBF0B8A2D0130BF003F0812
:100B2800C407F51F982D992D882D0130BF0003109B
:100B3800C00DC10DC20DC30DBF0B9B2D75087902E9
:100B4800031DB02D74087802031DB02D73087702B9
:100B5800031DB02D72087602031CB32DB42DC32DCE
:100B68007208F6027308031C730FF7027408031C5B
:100B7800740FF8027508031C750FF9024014013050
:100B88000310F50CF40CF30CF20CFF3E031DC42DFE
:100B98000130C402031DD12DD22D992D4308F50033
:100BA8004208F4004108F3004008F20008000A1265
:100BB8008A15F1240A128A11D030F2000030F300AD
:100BC8000A128A150C250A128A110130F200003027
:100BD800F3000A128A150C250A128A110A128A15BC
:100BE80003250A128A11D130F2000030F3000A12EC
:100BF8008A150C250A128A110030F200F3000A1235
:100C08008A1591250A128A11730883120313AB00FF
:100C18007208AA000A128A15FA240A128A110F30D9
:100C2800831203132A05BF0000302B05C0002A0ECB
:100C38000F39F2002B0EF039F2042B0E0F39F300A6
:100C4800F030F31D0030F3040A30F4000030F500F2
:100C58000A128A11D4270A128A11831203133F0831
:100C68007207AA0040080318400A7307AB002B0854
:100C7800F9002A08F80008000A128A15F1240A1255
:100C88008A11D030F2000030F3000A128A150C25C0
:100C98000A128A110530F2000030F3000A128A1590
:100CA8000C250A128A110A128A1503250A128A11BA
:100CB800D130F2000030F3000A128A150C250A120E
:100CC8008A110030F200F3000A128A1591250A12DF
:100CD8008A11730883120313A5007208A4000A126C
:100CE8008A15FA240A128A110F3083120313240575
:100CF800BF0000302505C000240E0F39F200250E74
:100D0800F039F204250E0F39F300F030F31D0030EE
:100D1800F3040A30F4000030F5000A128A11D427CF
:100D28000A128A11831203133F087207A4004008AD
:100D38000318400A7307A5002508F9002408F800DD
:100D480008000A128A15F1240A128A11D030F2001A
:100D58000030F3000A128A150C250A128A11023093
:100D6800F2000030F3000A128A150C250A128A11C3
:100D78000A128A1503250A128A11D130F2000030AE
:100D8800F3000A128A150C250A128A110030F200A3
:100D9800F3000A128A1591250A128A117308831220
:100DA8000313A9007208A8000A128A15FA240A1265
:100DB8008A110F30831203132805BF00003029055C
:100DC800C000280E0F39F200290EF039F204290E5E
:100DD8000F39F300F030F31D0030F3040A30F4004B
:100DE8000030F5000A128A11D4270A128A118312D8
:100DF80003133F087207A80040080318400A730746
:100E0800A9002908F9002808F80008000A128A151C
:100E1800F1240A128A11D030F2000030F3000A12CD
:100E28008A150C250A128A110430F2000030F300EA
:100E38000A128A150C250A128A110A128A15032524
:100E48000A128A11D130F2000030F3000A128A1512
:100E58000C250A128A110030F200F3000A128A15D2
:100E680091250A128A11730883120313A7007208C6
:100E7800A6000A128A15FA240A128A110F30831260
:100E880003132605BF0000302705C000260E0F39C2
:100E9800F200270EF039F204270E0F39F300F03074
:100EA800F31D0030F3040A30F4000030F5000A1294
:100EB8008A11D4270A128A11831203133F08720772
:100EC800A60040080318400A7307A7002708F9007E
:100ED8002608F80008000A128A15F1240A128A1155
:100EE800D030F2000030F3000A128A150C250A12DD
:100EF8008A110630F2000030F3000A128A150C2518
:100F08000A128A110A128A1503250A128A11D13087
:100F1800F2000030F3000A128A150C250A128A1111
:100F28000030F200F3000A128A1591250A128A117C
:100F3800730883120313A3007208A2000A128A1509
:100F4800FA240A128A110F30831203132205BF00F4
:100F580000302305C000220E0F39F200230EF039AD
:100F6800F204230E0F39F300F030F31D0030F304C0
:100F78000A30F4000030F5000A128A11D4270A1248
:100F88008A11831203133F087207A200400803184E
:100F9800400A7307A3002908F9002808F800080088
:100FA800F601F701721CD92FDA2FE02F7408F60723
:100FB8000318F70A7508F70701300310F40DF50D4B
:100FC800FF3E031DE12F01300310F30CF20CFF3E2E
:100FD800031DE82F72087304031DF32FF42FD62F77
:0A0FE8007708F3007608F200080015
:1010000008308A000408840A8207003441344434DA
:0A101000433400343234303400342D
:1019D20064008001840A0406031900340406EA2C18
:1019E2000A128A1523250A128A1583160313111463
:1019F20008000A128A1523250A128A158316031370
:101A0200111508000A128A1523250A128A1583164F
:101A12000313911408000A128A1523250A128A1543
:101A22007208831203139300080000300A128A1509
:101A320030250A128A1501300A128A1530250A1237
:101A42008A150800831603131419282D292D232D16
:101A520011081F39031D2E2D2F2D232D0800F500EF
:101A620083120313081175080A128A154A250A12ED
:101A72008A158312031388150B30F4006230F300C9
:101A8200F30B412DF40B412D000083120313881137
:101A92000800F200721C4E2D4F2D532D831203139A
:101AA2000816562D831203130812F21C592D5A2DB3
:101AB2005C2D88165D2D8812721D602D612D632D9F
:101AC2000817642D0813F21D672D682D6A2D8817DB
:101AD2006B2D88130800F900F701F801832D7708B0
:101AE200790784000A128A1500200A128A150A123E
:101AF2008A15ED250A128A150130F7070318F80A2C
:101B02000030F8077708790784000A128A15002046
:101B12000A128A15003A031D8F2D902D702D080090
:101B22000A128A1523250A128A15831603139115A0
:101B32000A128A1523250A128A158312031313081F
:101B4200F400F5017408F6007508F7000A128A1508
:101B520023250A128A1572037304031DB12DB22DB7
:101B6200B62D831603139112B92D83160313911602
:101B720011167708F3007608F2000800831603179F
:101B8200880189010F3083160313860088018501BD
:101B920083120313860188018501831603138113BF
:101BA20015149514151595150F3096000B108B15FD
:101BB2008B1770308F040F14003083120313C80088
:101BC2000130C7008630C600A030C5000A128A154F
:101BD20022260A128A150800F60076080F39F40048
:101BE2007608F039F5008312031308157508F3001F
:101BF20004300310F30CFF3E031DFA2D73080A1282
:101C02008A154A250A128A158312031388151A3077
:101C1200F300F30B0A2E00008312031388117408D9
:101C22000A128A154A250A128A1583120313881585
:101C32001A30F300F30B1B2E0000831203138811DA
:101C420008002830831203139400831603139101B2
:101C5200831203134508C9004608CA004708CB008F
:101C62004808CC0002300310C90DCA0DCB0DCC0DB3
:101C7200FF3E031D342E4C08F5004B08F4004A08C1
:101C8200F3004908F2000030F9007A30F80012300F
:101C9200F7000030F6000A128A1173250A128A151B
:101CA2007208FF3E831603139300940187150716EB
:101CB20008000A128A15F1240A128A15D030F2009D
:101CC2000030F3000A128A150C250A128A15043014
:101CD200F2000030F3000A128A150C250A128A1546
:101CE200831203132708F3002608F2000A128A154A
:101CF2000C250A128A15831203132508F3002408FF
:101D0200F2000A128A150C250A128A15831203138D
:101D12002308F3002208F2000A128A150C250A127F
:101D22008A150A128A15FA240A128A1508008312E1
:101D32000313BF003F03031D9F2EA02EBF2E760864
:101D42007F3EC2004208F70004300310F70CFF3E4A
:101D5200031DA62E7708C00042080F39C1004008B3
:101D62000A128A1530250A128A15831203134108B2
:101D72000A128A1530250A128A15E32E02303F060E
:101D8200031DC42EC52EE32E7608BF3EC2004208B4
:101D9200F70004300310F70CFF3E031DCB2E77082B
:101DA200C00042080F39C10040080A128A153025C6
:101DB2000A128A158312031341080A128A15302562
:101DC2000A128A150800F90183120313C61FEA2EAC
:101DD200EB2EF22EC509C609C50A0319C60AF90176
:101DE200F90AC41FF52EF62EFB2EC309C409C30A35
:101DF2000319C40A430844040319002F012F302F8A
:101E0200F801F80A0F2F01300310C30DC40DFF3E75
:101E1200031D052F0130F7007708F807C41F122FA2
:101E2200132F042F44084602031D192F43084502AD
:101E3200031C1C2F1D2F232F4308C5024408031C1B
:101E4200C603C60201300310C40CC30CFF3E031DBF
:101E5200242F0130F802031D2F2F302F132F790862
:101E62000319342F352F3A2FC509C609C50A03199C
:101E7200C60A4608C4004508C300080000300A121A
:101E82008A154A250A128A153430F700F130F60015
:101E9200F60B492FF70B492F4E2F03300A128A15E2
:101EA20030250A128A150D30F700FB30F600F60BCA
:101EB200582FF70B582F5D2F03300A128A15302541
:101EC2000A128A151D30F7009130F600F60B672FC3
:101ED200F70B672F03300A128A1530250A128A156A
:101EE20002300A128A1530250A128A1502300A12A5
:101EF2008A1530250A128A1508300A128A153025E9
:101F02000A128A1500300A128A1530250A128A1519
:101F12000C300A128A1530250A128A1500300A126C
:101F22008A1530250A128A1506300A128A153025BA
:101F32000A128A1508000A128A15F1240A128A1551
:101F4200D030F2000030F3000A128A150C250A1272
:101F52008A150030F200F3000A128A150C250A12C3
:101F62008A150A128A1503250A128A15D130F2003F
:101F72000030F3000A128A150C250A128A15003065
:101F8200F200F3000A128A1591250A128A157308C3
:101F920083120313AD007208AC000A128A15FA24E8
:101FA2000A128A150F30831203132C05BF0000306A
:101FB2002D05C0002C0E0F39F2002D0EF039F2045F
:101FC2002D0E0F39F300F030F31D0030F3040A3008
:101FD200F4000030F5000A128A11D4270A128A1579
:101FE200831203133F087207AC0040080318400A2B
:0E1FF2007307AD002D08F9002C08F800080058
:08400000FF3FFF3FFF3FFF3FC0
:04400E00D420FF3F7C
:00000001FF
