:100000000A128A11FC2F00308A000408840A820731
:1000100000347734773477342E3465346C34653477
:100020006334743472346F3453346F346D346534E4
:100030002E3463346F346D3400344C3443344434E0
:1000400020344C346934623472346134723479341B
:10005000203466346F34723400344434653476347A
:1000600065346C346F347034653464342034423415
:100070007934003465346C346534633474347234E8
:100080006F3453346F346D346534003448346F3416
:100090006C34613420344D3475346E3464346F34D0
:1000A00000344D3450344C344134423420345834CC
:0600B00043343834003433
:100B240000300A128A11B9250A128A1101300A12F8
:100B34008A11B9250A128A11080001300A128A1191
:100B4400B9250A128A1108300A128A11B9250A1223
:100B54008A11080001300A128A11B9250A128A1171
:100B64000C300A128A11B9250A128A110800F300FE
:100B740083120313081173080A128A11D3250A1267
:100B84008A118312031388150B30F2006230F100CE
:100B9400F10BCA2DF20BCA2D000083120313881126
:100BA4000800F000701CD72DD82DDC2D8312031300
:100BB4000816DF2D831203130812F01CE22DE32D17
:100BC400E52D8816E62D8812701DE92DEA2DEC2DF1
:100BD4000817ED2D0813F01DF02DF12DF32D8817B6
:100BE400F42D88130800F700F501F6010C2E7508A2
:100BF400770784000A128A1103200A128A110A1242
:100C04008A111A260A128A110130F5070318F60A06
:100C14000030F6077508770784000A128A1103204A
:100C24000A128A11003A031D182E192EF92D0800F4
:100C3400F40074080F39F2007408F039F3008312D9
:100C4400031308157308F10004300310F10CFF3E80
:100C5400031D272E71080A128A11D3250A128A113C
:100C64008312031388151A30F100F10B372E00009C
:100C740083120313881172080A128A11D3250A12E7
:100C84008A118312031388151A30F100F10B482ED0
:100C940000008312031388110800F6007603031D75
:100CA400542E552E722E74087F3EF9007908F500F3
:100CB40004300310F50CFF3E031D5B2E7508F7008E
:100CC40079080F39F80077080A128A11B9250A122F
:100CD4008A1178080A128A11B9250A128A11942EE7
:100CE40002307606031D772E782E942E7408BF3EAC
:100CF400F9007908F50004300310F50CFF3E031DDC
:100D04007E2E7508F70079080F39F80077080A1263
:100D14008A11B9250A128A1178080A128A11B9258A
:100D24000A128A11080000300A128A11D3250A1205
:100D34008A113430F500F130F400F40B9F2EF50BDA
:100D44009F2EA42E03300A128A11B9250A128A1181
:100D54000D30F500FB30F400F40BAE2EF50BAE2E87
:100D6400B32E03300A128A11B9250A128A111D30D2
:100D7400F5009130F400F40BBD2EF50BBD2E0330BD
:100D84000A128A11B9250A128A1102300A128A112A
:100D9400B9250A128A1102300A128A11B9250A12D7
:100DA4008A1108300A128A11B9250A128A110030F0
:100DB4000A128A11B9250A128A110C300A128A11F0
:100DC400B9250A128A1100300A128A11B9250A12A9
:100DD4008A1106300A128A11B9250A128A110800EA
:100DE40083160313880170308F040F140A128A11BA
:100DF40095260A128A110A128A1192250A128A1158
:100E0400F401F40A01300A128A114F260A128A11D7
:100E140015300A128A11F5250A128A11F401F40A0E
:100E240002300A128A114F260A128A1149300A1214
:100E34008A11F5250A128A111530FC004B30FB008B
:100E4400BE30FA00FA0B242FFB0B242FFC0B242FAB
:100E540000000A128A1192250A128A11F401F40A76
:100E640001300A128A114F260A128A1125300A12F9
:100E74008A11F5250A128A11F401F40A02300A12C1
:100E84008A114F260A128A1132300A128A11F52564
:100E94000A128A111530FC004B30FB00BE30FA00F8
:100EA400FA0B522FFB0B522FFC0B522F00000A128D
:100EB4008A1192250A128A11F401F40A01300A12E5
:100EC4008A114F260A128A1101300A128A11F52555
:100ED4000A128A1183120313A001A1010430FC0039
:100EE4000C30FB003330FA00FA0B762FFB0B762F15
:100EF400FC0B762F7D2F0A128A119F250A128A1164
:100F0400013083120313A0070318A10A0030A107BC
:100F1400003021020F3003192002031C922F932F5B
:100F2400702FA001A1010430FC000C30FB00333011
:100F3400FA00FA0B9B2FFB0B9B2FFC0B9B2FA22F72
:100F44000A128A11AC250A128A1101308312031382
:100F5400A0070318A10A0030A107003021020F30B6
:100F640003192002031CB72FB82F952F0A128A11D8
:100F740092250A128A11F401F40A02300A128A1123
:100F84004F260A128A1148300A128A111A260A12A6
:100F94008A116F300A128A111A260A128A116C30C9
:100FA4000A128A111A260A128A1161300A128A1147
:100FB4001A260A128A11F401F40A01300A128A115B
:100FC4004F260A128A113E300A128A11F5250A1296
:100FD4008A111530FC004B30FB00BE30FA00FA0BCE
:100FE400F12FFB0BF12FFC0BF12F0000FD2E0A1249
:0C0FF4008A11002883010A128A11F22ED3
:08400000FF3FFF3FFF3FFF3FC0
:04400E00D420FF3F7C
:00000001FF
