:100000000A128A11F32F00308A000408840A82073A
:1000100000344134443443342034203420342034F8
:0E00200020344634653463346834613400346F
:1006C40064008001840A0406031900340406632BC1
:1006D4000A128A119C230A128A1183160313911495
:1006E40008000A128A119C230A128A118316031322
:1006F400111408000A128A119C230A128A11831603
:100704000313111508000A128A119C230A128A1174
:100714007008831203139300080000300A128A1130
:10072400A9230A128A1101300A128A11A9230A1272
:100734008A110800831603131419A12BA22B9C2BD6
:1007440011081F39031DA72BA82B9C2B0800F300AD
:1007540083120313081173080A128A11E4230A127C
:100764008A118312031388150B30F2006230F100F2
:10077400F10BBA2BF20BBA2B00008312031388116E
:100784000800831603178801890183160313860161
:1007940088018312031386018801703083160313C2
:1007A4008F040F14003083120313B3000130B2001E
:1007B4008630B100A030B0000A128A118E240A12C9
:1007C4008A110800F000701CE82BE92BED2B831232
:1007D40003130816F02B831203130812F01CF32BD7
:1007E400F42BF62B8816F72B8812701DFA2BFB2B93
:1007F400FD2B0817FE2B0813F01D012C022C042CD2
:100804008817052C88130800F700F501F6011D2C44
:100814007508770784000A128A1103200A128A11C4
:100824000A128A1159240A128A110130F507031891
:10083400F60A0030F6077508770784000A128A1151
:1008440003200A128A11003A031D292C2A2C0A2C8F
:1008540008000A128A119C230A128A1183160313B0
:1008640091150A128A119C230A128A118312031306
:100874001308F200F3017208F4007308F5000A1279
:100884008A119C230A128A1170037104031D4B2CD4
:100894004C2C502C831603139112532C83160313E0
:1008A400911611167508F1007408F0000800F400A0
:1008B40074080F39F2007408F039F300831203133B
:1008C40008157308F10004300310F10CFF3E031DFA
:1008D400662C71080A128A11E4230A128A118312FF
:1008E400031388151A30F100F10B762C00008312E3
:1008F4000313881172080A128A11E4230A128A1156
:100904008312031388151A30F100F10B872C0000B1
:1009140083120313881108002830831203139400F0
:10092400831603139101831203133008B4003108B2
:10093400B5003208B6003308B70002300310B40D16
:10094400B50DB60DB70DFF3E031DA02C3708F300FF
:100954003608F2003508F1003408F0000030F700E2
:100964007A30F6001230F5000030F4000A128A11D1
:10097400C4250A128A117008FF3E831603139300DC
:100984009401871507160800F6007603031DCB2C87
:10099400CC2CE92C74087F3EF9007908F50004306A
:1009A4000310F50CFF3E031DD22C7508F7007908DF
:1009B4000F39F80077080A128A11A9230A128A113A
:1009C40078080A128A11A9230A128A110B2D0230FF
:1009D4007606031DEE2CEF2C0B2D7408BF3EF90098
:1009E4007908F50004300310F50CFF3E031DF52CC7
:1009F4007508F70079080F39F80077080A128A1188
:100A0400A9230A128A1178080A128A11A9230A1240
:100A14008A11080083120313B101FC1F122D132D38
:100A24001A2DFB09FC09FB0A0319FC0AB101B10ADE
:100A3400FA1F1D2D1E2D232DF909FA09F90A031990
:100A4400FA0A79087A040319282D292D582DB001A2
:100A5400B00A372D01300310F90DFA0DFF3E031DC6
:100A64002D2D0130FD007D08B007FA1F3A2D3B2DD6
:100A74002C2D7A087C02031D412D79087B02031C6E
:100A8400442D452D4B2D7908FB027A08031CFC03E9
:100A9400FC0201300310FA0CF90CFF3E031D4C2D2F
:100AA4000130B002031D572D582D3B2D3108031979
:100AB4005C2D5D2D622DFB09FC09FB0A0319FC0A60
:100AC4007C08FA007B08F900080000300A128A1139
:100AD400E4230A128A113430F500F130F400F40BE7
:100AE400712DF50B712D762D03300A128A11A9236D
:100AF4000A128A110D30F500FB30F400F40B802D3E
:100B0400F50B802D852D03300A128A11A9230A12B0
:100B14008A111D30F5009130F400F40B8F2DF50B84
:100B24008F2D03300A128A11A9230A128A11023066
:100B34000A128A11A9230A128A1102300A128A118E
:100B4400A9230A128A1108300A128A11A9230A1247
:100B54008A1100300A128A11A9230A128A110C3050
:100B64000A128A11A9230A128A1100300A128A1160
:100B7400A9230A128A1106300A128A11A9230A1219
:100B84008A1108000030FC000030FB000030FA003D
:100B94000030F90073087204710470040319D32D32
:100BA400D42D212EFD01FD0AE42D0130F80003109F
:100BB400F00DF10DF20DF30DF80BD92D0130F80005
:100BC4007808FD07F31FE72DE82DD72D0130F80035
:100BD4000310F90DFA0DFB0DFC0DF80BEA2D73084B
:100BE4007702031DFF2D72087602031DFF2D710885
:100BF4007502031DFF2D70087402031C022E032EC0
:100C0400122E7008F4027108031C710FF5027208A9
:100C1400031C720FF6027308031C730FF702791496
:100C240001300310F30CF20CF10CF00CFF3E031D29
:100C3400132E0130FD02031D202E212EE82D7C08E9
:100C4400F3007B08F2007A08F1007908F00008004C
:100C5400F601F11F2E2E2F2E362EF009F109F00A7F
:100C64000319F10AF601F60AF31F392E3A2E432E20
:100C7400F209F309F20A0319F30A0130F4007408C3
:100C8400F606F701F8017008710403194A2E4B2E79
:100C9400822EF501F50A592E01300310F00DF10DE5
:100CA400FF3E031D4F2E0130F4007408F507F11FB9
:100CB4005C2E5D2E4E2E01300310F70DF80DFF3E15
:100CC400031D5E2E71087302031D6A2E70087202E2
:100CD400031C6D2E6E2E752E7008F2027108031C13
:100CE400F303F302771401300310F10CF00CFF3E10
:100CF400031D762E0130F502031D812E822E5D2EFA
:100D040076080319862E872E8C2EF709F809F70A20
:100D14000319F80A7808F1007708F00008000A12AD
:100D24008A1173230A128A11D030F0000030F100C6
:100D34000A128A1185230A128A110030F000F10088
:100D44000A128A1185230A128A110A128A116A2345
:100D54000A128A11D130F0000030F1000A128A110F
:100D640085230A128A110030F000F1000A128A1158
:100D74002B240A128A11710883120313AB00700822
:100D8400AA000030F000F1000A128A1185230A1229
:100D94008A110130F0000030F1000A128A112B246C
:100DA4000A128A11710883120313A9007008A8009B
:100DB4000030F000F1000A128A1185230A128A1108
:100DC4000230F0000030F1000A128A112B240A12BA
:100DD4008A11710883120313A7007008A60001305A
:100DE400F0000030F1000A128A1185230A128A11D8
:100DF4000A128A117C230A128A1108000A128A1123
:100E0400C3230A128A110A128A1167250A128A1147
:100E14000A128A118F230A128A11F401F40A01308A
:100E24000A128A11C6240A128A1101300A128A117E
:100E340006240A128A110A128A1173230A128A11C9
:100E44005030F0000030F1000A128A1185230A1292
:100E54008A11831203130608B800B9013808F00098
:100E64003908F1000A128A1185230A128A110A121A
:100E74008A117C230A128A11A53083120313B80045
:100E8400B80B422F452F0A128A1173230A128A11B2
:100E94005130F0000030F1000A128A1185230A1241
:100EA4008A110030F000F1000A128A112B240A1270
:100EB4008A11700883120313AF000A128A117C236B
:100EC4000A128A11A53083120313B800B80B682FD5
:100ED4006B2F0A128A1191260A128A116430F000CB
:100EE4000030F100831203132F08B800B901380849
:100EF400F2003908F3000A128A112A260A128A110A
:100F0400700883120313AE000A30F9000030FA00AF
:100F14000A30F0000030F1002F08B800B901380899
:100F2400F2003908F3000A128A112A260A128A11D9
:100F34007108FC007008FB000A128A110C250A12C1
:100F44008A11790883120313AD000A30F9000030C6
:100F5400FA002F08B800B9013808FB003908FC0072
:100F64000A128A110C250A128A11790883120313B2
:100F7400AC00F401F40A02300A128A11C6240A12DF
:100F84008A11831203132E08303E0A128A1159243F
:100F94000A128A11831203132D08303E0A128A1191
:100FA40059240A128A11831203132C08303E0A12A0
:100FB4008A1159240A128A110830F40002300A12E4
:100FC4008A11C6240A128A11831203132A08303E96
:100FD4000A128A1159240A128A111D2F0A128A111F
:100FE400002883132030840030300A128A116223CF
:0C0FF4000A128A1183010A128A11002FD0
:08400000FF3FFF3FFF3FFF3FC0
:04400E00D420FF3F7C
:00000001FF
