:060000000A128A11FC2F18
:100D02000A128A119D260A128A11831603131114DC
:100D120008000A128A119D260A128A1183160313E9
:100D2200111508000A128A119D260A128A117008EA
:100D32008312031393000800831603131419A22EBF
:100D4200A32E9D2E11081F39031DA82EA92E9D2EFC
:100D5200080083160317880189018316031386018D
:100D6200880183120313860188010030A300013039
:100D7200A2008630A100A030A0000A128A11F72634
:100D82000A128A117030831603138F040F1408009D
:100D92000A128A119D260A128A11831603139115CB
:100DA2000A128A119D260A128A118312031313084A
:100DB200F200F3017208F4007308F5000A128A11B6
:100DC2009D260A128A1170037104031DE92EEA2E70
:100DD200EE2E831603139112F12E8316031391162E
:100DE20011167508F1007408F0000800283083120B
:100DF2000313940083160313910183120313200833
:100E0200A4002108A5002208A6002308A70002309A
:100E12000310A40DA50DA60DA70DFF3E031D092F5E
:100E22002708F3002608F2002508F1002408F00044
:100E32000030F7007A30F6001230F5000030F4008E
:100E42000A128A112F270A128A117008FF3E83168E
:100E52000313930094018715071608000030FC0065
:100E62000030FB000030FA000030F9007308720411
:100E72007104700403193E2F3F2F8C2FFD01FD0AD0
:100E82004F2F0130F8000310F00DF10DF20DF30DAC
:100E9200F80B442F0130F8007808FD07F31F522F9A
:100EA200532F422F0130F8000310F90DFA0DFB0DFC
:100EB200FC0DF80B552F73087702031D6A2F720879
:100EC2007602031D6A2F71087502031D6A2F7008CE
:100ED2007402031C6D2F6E2F7D2F7008F4027108AF
:100EE200031C710FF5027208031C720FF6027308DD
:100EF200031C730FF702791401300310F30CF20C88
:100F0200F10CF00CFF3E031D7E2F0130FD02031D8C
:100F12008B2F8C2F532F7C08F3007B08F2007A086A
:100F2200F1007908F00008000A128A11AA260A12B2
:100F32008A110A128A1181260A128A115030F0008F
:100F42000030F1000A128A1193260A128A118312C2
:100F520003130608A800A9012808F0002908F100D7
:100F62000A128A1193260A128A110A128A118A26F1
:100F72000A128A11033083120313AA000830A9004F
:100F82007630A800A80BC32FA90BC32FAA0BC32F1F
:100F920000000A128A1181260A128A115130F000C9
:100FA2000030F1000A128A1193260A128A110030C7
:100FB200F000F1000A128A11C9260A128A11700879
:100FC2008312031388000A128A118A260A128A11CE
:100FD200033083120313AA000830A9007630A80058
:100FE200A80BF12FA90BF12FAA0BF12F00009A2FBA
:0E0FF2000A128A11002883010A128A11952F13
:08400000FF3FFF3FFF3FFF3FC0
:04400E00D620FF3F7A
:00000001FF
