:100000000A128A11F62F00308A000408840A820737
:1000100000344134443443342034203420342034F8
:0E00200020344634653463346834613400346F
:1007D6000A128A1107240A128A11831603131114A6
:1007E60008000A128A1107240A128A1183160313B3
:1007F600111508000A128A1107240A128A117008B4
:1008060083120313930008008316031314190C2C88
:100816000D2C072C11081F39031D122C132C072C25
:10082600080000300A128A1121240A128A110130A6
:100836000A128A1121240A128A110800F30083126F
:100846000313081173080A128A115C240A128A110A
:100856008312031388150B30F2006230F100F10B9E
:10086600322CF20B322C000083120313881108007D
:1008760083160317880189018316031386018801ED
:1008860083120313860188017030831603138F04C5
:100896000F14003083120313A3000130A200863028
:1008A600A100A030A0000A128A1106250A128A1198
:1008B6000800F000701C602C612C652C8312031359
:1008C6000816682C831203130812F01C6B2C6C2C70
:1008D6006E2C88166F2C8812701D722C732C752C3A
:1008E6000817762C0813F01D792C7A2C7C2C881787
:1008F6007D2C88130800F700F501F601952C750884
:10090600770784000A128A1103200A128A110A1232
:100916008A11D1240A128A110130F5070318F60A42
:100926000030F6077508770784000A128A1103203B
:100936000A128A11003A031DA12CA22C822C08004F
:100946000A128A1107240A128A11831603139115B3
:100956000A128A1107240A128A1183120313130832
:10096600F200F3017208F4007308F5000A128A1106
:1009760007240A128A1170037104031DC32CC42CA8
:10098600C82C831603139112CB2C831603139116CE
:1009960011167508F1007408F0000800F4007408D8
:1009A6000F39F2007408F039F300831203130815A7
:1009B6007308F10004300310F10CFF3E031DDE2C1A
:1009C60071080A128A115C240A128A11831203130F
:1009D60088151A30F100F10BEE2C00008312031378
:1009E600881172080A128A115C240A128A1183126B
:1009F600031388151A30F100F10BFF2C0000831247
:100A060003138811080028308312031394008316F9
:100A160003139101831203132008A4002108A500E3
:100A26002208A6002308A70002300310A40DA50D76
:100A3600A60DA70DFF3E031D182D2708F300260857
:100A4600F2002508F1002408F0000030F7007A30A3
:100A5600F6001230F5000030F4000A128A113C2626
:100A66000A128A117008FF3E83160313930094013D
:100A7600871507160800F6007603031D432D442D3F
:100A8600612D74087F3EF9007908F50004300310E3
:100A9600F50CFF3E031D4A2D7508F70079080F393E
:100AA600F80077080A128A1121240A128A11780896
:100AB6000A128A1121240A128A11832D023076061F
:100AC600031D662D672D832D7408BF3EF900790836
:100AD600F50004300310F50CFF3E031D6D2D75085F
:100AE600F70079080F39F80077080A128A112124CD
:100AF6000A128A1178080A128A1121240A128A1106
:100B0600080083120313A101FC1F8A2D8B2D922D41
:100B1600FB09FC09FB0A0319FC0AA101A10AFA1F39
:100B2600952D962D9B2DF909FA09F90A0319FA0A4A
:100B360079087A040319A02DA12DD02DA001A00AB1
:100B4600AF2D01300310F90DFA0DFF3E031DA52D43
:100B56000130FD007D08A007FA1FB22DB32DA42D8C
:100B66007A087C02031DB92D79087B02031CBC2D73
:100B7600BD2DC32D7908FB027A08031CFC03FC0279
:100B860001300310FA0CF90CFF3E031DC42D013091
:100B9600A002031DCF2DD02DB32D21080319D42D6E
:100BA600D52DDA2DFB09FC09FB0A0319FC0A7C0882
:100BB600FA007B08F900080000300A128A115C244A
:100BC6000A128A113430F500F130F400F40BE92DE5
:100BD600F50BE92DEE2D03300A128A1121240A1293
:100BE6008A110D30F500FB30F400F40BF82DF50BEF
:100BF600F82DFD2D03300A128A1121240A128A11BA
:100C06001D30F5009130F400F40B072EF50B072E7E
:100C160003300A128A1121240A128A1102300A129A
:100C26008A1121240A128A1102300A128A112124F9
:100C36000A128A1108300A128A1121240A128A110C
:100C460000300A128A1121240A128A110C300A1263
:100C56008A1121240A128A1100300A128A112124CB
:100C66000A128A1106300A128A1121240A128A11DE
:100C760008000030FC000030FB000030FA000030B5
:100C8600F900730872047104700403194B2E4C2E7C
:100C9600992EFD01FD0A5C2E0130F8000310F00DBF
:100CA600F10DF20DF30DF80B512E0130F800780816
:100CB600FD07F31F5F2E602E4F2E0130F800031044
:100CC600F90DFA0DFB0DFC0DF80B622E7308770279
:100CD600031D772E72087602031D772E71087502A2
:100CE600031D772E70087402031C7A2E7B2E8A2E23
:100CF6007008F4027108031C710FF5027208031CD8
:100D0600720FF6027308031C730FF7027914013091
:100D16000310F30CF20CF10CF00CFF3E031D8B2EAE
:100D26000130FD02031D982E992E602E7C08F300DB
:100D36007B08F2007A08F1007908F0000800F60155
:100D4600F11FA62EA72EAE2EF009F109F00A0319FF
:100D5600F10AF601F60AF31FB12EB22EBB2EF209E6
:100D6600F309F20A0319F30A0130F4007408F606CF
:100D7600F701F801700871040319C22EC32EFA2E6A
:100D8600F501F50AD12E01300310F00DF10DFF3EED
:100D9600031DC72E0130F4007408F507F11FD42E89
:100DA600D52EC62E01300310F70DF80DFF3E031D9C
:100DB600D62E71087302031DE22E70087202031C00
:100DC600E52EE62EED2E7008F2027108031CF303E1
:100DD600F302771401300310F10CF00CFF3E031DF3
:100DE600EE2E0130F502031DF92EFA2ED52E7608C9
:100DF6000319FE2EFF2E042FF709F809F70A031927
:100E0600F80A7808F1007708F00008000A128A113B
:100E16003B240A128A110A128A11DF250A128A1144
:100E26000A128A1114240A128A11F401F40A0130F2
:100E36000A128A113E250A128A1101300A128A11F3
:100E46007E240A128A110A128A11EB230A128A11C7
:100E56005030F0000030F1000A128A11FD230A1208
:100E66008A11831203130608A800A9012808F000B6
:100E76002908F1000A128A11FD230A128A110A12A0
:100E86008A11F4230A128A11033083120313AA006B
:100E96000830A9007630A800A80B4F2FA90B4F2FBA
:100EA600AA0B4F2F00000A128A11EB230A128A118D
:100EB6005130F0000030F1000A128A11FD230A12A7
:100EC6008A110030F000F1000A128A11A3240A12D6
:100ED6008A11700883120313AE000A128A11F423D2
:100EE6000A128A11033083120313AA000830A900DC
:100EF6007630A800A80B7D2FA90B7D2FAA0B7D2F7E
:100F060000006430F0000030F100831203132E0855
:100F1600A800A9012808F2002908F3000A128A117C
:100F2600A2260A128A11700883120313AD000A3032
:100F3600F9000030FA000A30F0000030F1002E0807
:100F4600A800A9012808F2002908F3000A128A114C
:100F5600A2260A128A117108FC007008FB000A1208
:100F66008A1184250A128A11790883120313AC00A8
:100F76000A30F9000030FA002E08A800A901280856
:100F8600FB002908FC000A128A1184250A128A111C
:100F9600790883120313AB00F401F40A02300A1233
:100FA6008A113E250A128A11831203132D08303E38
:100FB6000A128A11D1240A128A11831203132C08E9
:100FC600303E0A128A11D1240A128A11831203139F
:100FD6002B08303E0A128A11D1240A128A11262FB2
:100FE6000A128A11002883120313AB01AC01AD016A
:0A0FF600AE0183010A128A11092FCF
:08400000FF3FFF3FFF3FFF3FC0
:04400E00D420FF3F7C
:00000001FF
