:060000000A128A110C280F
:10000800FE00030EF1000A08F2000A128A111628EF
:100018000A128A110F28F701F801F90183010A125F
:100028008A11C728831203138C1D1B281C286C28CF
:100038001412141B202821282528941F2428252839
:100048002A281308F900141394131416831603139B
:10005800941A2F2830284A281419332834284A2873
:10006800831203131308F9008C1114168316031353
:10007800141C3F2840283A288312031313088800C9
:10008800A630F000F00B462800006928941A4D2885
:100098004E286928141D51285228692883120313F1
:1000A8001308F90083160313141077088312031337
:1000B80093001416A630F000F00B60280000831699
:1000C80003131418682869286328831203138C11F2
:1000D80072088A00710E8300FE0E7E0E09007308F6
:1000E800F500F50DF50D831203131F087506C339C6
:1000F80075069F009F149F18822883287F28423006
:10010800F500F50B85280000831203131E08F5007F
:10011800F6017508F3007608F40008008316031743
:10012800880189018316031386018801013085003F
:100138008312031386018801850170308316031327
:100148008F040F1450300A128A11AD200A128A1136
:100158000800F300730883160313930036308312E4
:100168000313940080308316031394000130910028
:10017800871507168B170B17831203138C11831619
:1001880003138C1508000A128A1192200A128A1188
:100198000A128A11DF200A128A110030F300F400D3
:1001A8000A128A1173200A128A117308F700D128DB
:1001B8000A128A110C2883160317080801388800C8
:1001C800831203139F019F131F13831603139F1298
:1001D8001F129F13831203131F144230F300F30BF3
:0601E800F32800000800EE
:08400000FF3FFF3FFF3FFF3FC0
:04400E00D620FF3F7A
:00000001FF
